{"project/contracts/ApprovalRegistry.sol":{"ApprovalRegistry":{"abi":[{"anonymous":false,"inputs":[{"indexed":true,"internalType":"uint256","name":"id","type":"uint256"}],"name":"RequestApproved","type":"event"},{"anonymous":false,"inputs":[{"indexed":true,"internalType":"uint256","name":"id","type":"uint256"},{"indexed":false,"internalType":"string","name":"approvalHash","type":"string"},{"indexed":false,"internalType":"string","name":"requestedAmount","type":"string"}],"name":"RequestCreated","type":"event"},{"anonymous":false,"inputs":[{"indexed":true,"internalType":"uint256","name":"id","type":"uint256"}],"name":"RequestExpired","type":"event"},{"anonymous":false,"inputs":[{"indexed":true,"internalType":"uint256","name":"id","type":"uint256"}],"name":"RequestRejected","type":"event"},{"inputs":[{"internalType":"uint256","name":"id","type":"uint256"}],"name":"approveRequest","outputs":[],"stateMutability":"nonpayable","type":"function"},{"inputs":[{"internalType":"string","name":"approvalHash","type":"string"},{"internalType":"string","name":"requestedAmount","type":"string"}],"name":"createRequest","outputs":[],"stateMutability":"nonpayable","type":"function"},{"inputs":[{"internalType":"uint256","name":"id","type":"uint256"}],"name":"expireRequest","outputs":[],"stateMutability":"nonpayable","type":"function"},{"inputs":[{"internalType":"uint256","name":"id","type":"uint256"}],"name":"getRequest","outputs":[{"internalType":"uint256","name":"requestId","type":"uint256"},{"internalType":"string","name":"approvalHash","type":"string"},{"internalType":"string","name":"requestedAmount","type":"string"},{"internalType":"uint256","name":"createdAt","type":"uint256"},{"internalType":"uint256","name":"expiresAt","type":"uint256"},{"internalType":"enum ApprovalRegistry.Status","name":"status","type":"uint8"}],"stateMutability":"view","type":"function"},{"inputs":[{"internalType":"uint256","name":"id","type":"uint256"}],"name":"rejectRequest","outputs":[],"stateMutability":"nonpayable","type":"function"},{"inputs":[],"name":"requestCount","outputs":[{"internalType":"uint256","name":"","type":"uint256"}],"stateMutability":"view","type":"function"},{"inputs":[{"internalType":"uint256","name":"","type":"uint256"}],"name":"requests","outputs":[{"internalType":"uint256","name":"id","type":"uint256"},{"internalType":"string","name":"approvalHash","type":"string"},{"internalType":"string","name":"requestedAmount","type":"string"},{"internalType":"uint256","name":"createdAt","type":"uint256"},{"internalType":"uint256","name":"expiresAt","type":"uint256"},{"internalType":"enum ApprovalRegistry.Status","name":"status","type":"uint8"}],"stateMutability":"view","type":"function"}],"evm":{"bytecode":{"linkReferences":{},"object":"608060405234801561000f575f80fd5b506111ac8061001d5f395ff3fe608060405234801561000f575f80fd5b506004361061007b575f3560e01c806381d12c581161005957806381d12c58146100d5578063c58343ef1461010a578063d7d1bbdb1461013f578063df89f8191461015b5761007b565b80632d7788db1461007f5780635badbe4c1461009b5780637e67ef12146100b9575b5f80fd5b6100996004803603810190610094919061093a565b610177565b005b6100a3610269565b6040516100b09190610974565b60405180910390f35b6100d360048036038101906100ce919061093a565b61026e565b005b6100ef60048036038101906100ea919061093a565b6103b6565b60405161010196959493929190610a8a565b60405180910390f35b610124600480360381019061011f919061093a565b610506565b60405161013696959493929190610a8a565b60405180910390f35b6101596004803603810190610154919061093a565b6106d6565b005b61017560048036038101906101709190610c23565b6107c7565b005b5f600381111561018a57610189610a17565b5b60015f8381526020019081526020015f206005015f9054906101000a900460ff1660038111156101bd576101bc610a17565b5b146101fd576040517f08c379a00000000000000000000000000000000000000000000000000000000081526004016101f490610ce3565b60405180910390fd5b600260015f8381526020019081526020015f206005015f6101000a81548160ff0219169083600381111561023457610233610a17565b5b0217905550807f1fdac08e93f72ff55b24ebdf4152b7f56b98982fe9249639c1010cc52aebccd660405160405180910390a250565b5f5481565b60015f8281526020019081526020015f206004015442116102c4576040517f08c379a00000000000000000000000000000000000000000000000000000000081526004016102bb90610d4b565b60405180910390fd5b5f60038111156102d7576102d6610a17565b5b60015f8381526020019081526020015f206005015f9054906101000a900460ff16600381111561030a57610309610a17565b5b1461034a576040517f08c379a000000000000000000000000000000000000000000000000000000000815260040161034190610db3565b60405180910390fd5b600360015f8381526020019081526020015f206005015f6101000a81548160ff0219169083600381111561038157610380610a17565b5b0217905550807f156422928a222d0605f7c85c73de1c726451b2032677324e1d205c5c26937c5760405160405180910390a250565b6001602052805f5260405f205f91509050805f0154908060010180546103db90610dfe565b80601f016020809104026020016040519081016040528092919081815260200182805461040790610dfe565b80156104525780601f1061042957610100808354040283529160200191610452565b820191905f5260205f20905b81548152906001019060200180831161043557829003601f168201915b50505050509080600201805461046790610dfe565b80601f016020809104026020016040519081016040528092919081815260200182805461049390610dfe565b80156104de5780601f106104b5576101008083540402835291602001916104de565b820191905f5260205f20905b8154815290600101906020018083116104c157829003601f168201915b505050505090806003015490806004015490806005015f9054906101000a900460ff16905086565b5f6060805f805f8060015f8981526020019081526020015f206040518060c00160405290815f820154815260200160018201805461054390610dfe565b80601f016020809104026020016040519081016040528092919081815260200182805461056f90610dfe565b80156105ba5780601f10610591576101008083540402835291602001916105ba565b820191905f5260205f20905b81548152906001019060200180831161059d57829003601f168201915b505050505081526020016002820180546105d390610dfe565b80601f01602080910402602001604051908101604052809291908181526020018280546105ff90610dfe565b801561064a5780601f106106215761010080835404028352916020019161064a565b820191905f5260205f20905b81548152906001019060200180831161062d57829003601f168201915b505050505081526020016003820154815260200160048201548152602001600582015f9054906101000a900460ff16600381111561068b5761068a610a17565b5b600381111561069d5761069c610a17565b5b815250509050805f015181602001518260400151836060015184608001518560a001519650965096509650965096505091939550919395565b5f60038111156106e9576106e8610a17565b5b60015f8381526020019081526020015f206005015f9054906101000a900460ff16600381111561071c5761071b610a17565b5b1461075c576040517f08c379a000000000000000000000000000000000000000000000000000000000815260040161075390610ce3565b60405180910390fd5b6001805f8381526020019081526020015f206005015f6101000a81548160ff0219169083600381111561079257610791610a17565b5b0217905550807fbecbbd7543b68baaaf7e9c3fd12e4719f1f506f4253abef4a6573d0adf3a73ed60405160405180910390a250565b5f808154809291906107d890610e5b565b91905055506040518060c001604052805f5481526020018381526020018281526020014281526020016203f480426108109190610ea2565b81526020015f600381111561082857610827610a17565b5b81525060015f805481526020019081526020015f205f820151815f0155602082015181600101908161085a9190611072565b5060408201518160020190816108709190611072565b50606082015181600301556080820151816004015560a0820151816005015f6101000a81548160ff021916908360038111156108af576108ae610a17565b5b02179055509050505f547f2f218e1b6533efe437f7a6dafaf76a0a09f1f245838d66142e6cbd7af541ecf483836040516108ea929190611141565b60405180910390a25050565b5f604051905090565b5f80fd5b5f80fd5b5f819050919050565b61091981610907565b8114610923575f80fd5b50565b5f8135905061093481610910565b92915050565b5f6020828403121561094f5761094e6108ff565b5b5f61095c84828501610926565b91505092915050565b61096e81610907565b82525050565b5f6020820190506109875f830184610965565b92915050565b5f81519050919050565b5f82825260208201905092915050565b5f5b838110156109c45780820151818401526020810190506109a9565b5f8484015250505050565b5f601f19601f8301169050919050565b5f6109e98261098d565b6109f38185610997565b9350610a038185602086016109a7565b610a0c816109cf565b840191505092915050565b7f4e487b71000000000000000000000000000000000000000000000000000000005f52602160045260245ffd5b60048110610a5557610a54610a17565b5b50565b5f819050610a6582610a44565b919050565b5f610a7482610a58565b9050919050565b610a8481610a6a565b82525050565b5f60c082019050610a9d5f830189610965565b8181036020830152610aaf81886109df565b90508181036040830152610ac381876109df565b9050610ad26060830186610965565b610adf6080830185610965565b610aec60a0830184610a7b565b979650505050505050565b5f80fd5b5f80fd5b7f4e487b71000000000000000000000000000000000000000000000000000000005f52604160045260245ffd5b610b35826109cf565b810181811067ffffffffffffffff82111715610b5457610b53610aff565b5b80604052505050565b5f610b666108f6565b9050610b728282610b2c565b919050565b5f67ffffffffffffffff821115610b9157610b90610aff565b5b610b9a826109cf565b9050602081019050919050565b828183375f83830152505050565b5f610bc7610bc284610b77565b610b5d565b905082815260208101848484011115610be357610be2610afb565b5b610bee848285610ba7565b509392505050565b5f82601f830112610c0a57610c09610af7565b5b8135610c1a848260208601610bb5565b91505092915050565b5f8060408385031215610c3957610c386108ff565b5b5f83013567ffffffffffffffff811115610c5657610c55610903565b5b610c6285828601610bf6565b925050602083013567ffffffffffffffff811115610c8357610c82610903565b5b610c8f85828601610bf6565b9150509250929050565b7f52657175657374206973206e6f742070656e64696e67000000000000000000005f82015250565b5f610ccd601683610997565b9150610cd882610c99565b602082019050919050565b5f6020820190508181035f830152610cfa81610cc1565b9050919050565b7f4e6f7420657870697265642079657400000000000000000000000000000000005f82015250565b5f610d35600f83610997565b9150610d4082610d01565b602082019050919050565b5f6020820190508181035f830152610d6281610d29565b9050919050565b7f416c72656164792070726f6365737365640000000000000000000000000000005f82015250565b5f610d9d601183610997565b9150610da882610d69565b602082019050919050565b5f6020820190508181035f830152610dca81610d91565b9050919050565b7f4e487b71000000000000000000000000000000000000000000000000000000005f52602260045260245ffd5b5f6002820490506001821680610e1557607f821691505b602082108103610e2857610e27610dd1565b5b50919050565b7f4e487b71000000000000000000000000000000000000000000000000000000005f52601160045260245ffd5b5f610e6582610907565b91507fffffffffffffffffffffffffffffffffffffffffffffffffffffffffffffffff8203610e9757610e96610e2e565b5b600182019050919050565b5f610eac82610907565b9150610eb783610907565b9250828201905080821115610ecf57610ece610e2e565b5b92915050565b5f819050815f5260205f209050919050565b5f6020601f8301049050919050565b5f82821b905092915050565b5f60088302610f317fffffffffffffffffffffffffffffffffffffffffffffffffffffffffffffffff82610ef6565b610f3b8683610ef6565b95508019841693508086168417925050509392505050565b5f819050919050565b5f610f76610f71610f6c84610907565b610f53565b610907565b9050919050565b5f819050919050565b610f8f83610f5c565b610fa3610f9b82610f7d565b848454610f02565b825550505050565b5f90565b610fb7610fab565b610fc2818484610f86565b505050565b5b81811015610fe557610fda5f82610faf565b600181019050610fc8565b5050565b601f82111561102a57610ffb81610ed5565b61100484610ee7565b81016020851015611013578190505b61102761101f85610ee7565b830182610fc7565b50505b505050565b5f82821c905092915050565b5f61104a5f198460080261102f565b1980831691505092915050565b5f611062838361103b565b9150826002028217905092915050565b61107b8261098d565b67ffffffffffffffff81111561109457611093610aff565b5b61109e8254610dfe565b6110a9828285610fe9565b5f60209050601f8311600181146110da575f84156110c8578287015190505b6110d28582611057565b865550611139565b601f1984166110e886610ed5565b5f5b8281101561110f578489015182556001820191506020850194506020810190506110ea565b8683101561112c5784890151611128601f89168261103b565b8355505b6001600288020188555050505b505050505050565b5f6040820190508181035f83015261115981856109df565b9050818103602083015261116d81846109df565b9050939250505056fea26469706673582212206e589a7968fb894915e833a293e1eee2cfaae8c2fc87d4c475d0a7ca443fe67e64736f6c63430008140033","opcodes":"PUSH1 0x80 PUSH1 0x40 MSTORE CALLVALUE DUP1 ISZERO PUSH2 0xF JUMPI PUSH0 DUP1 REVERT JUMPDEST POP PUSH2 0x11AC DUP1 PUSH2 0x1D PUSH0 CODECOPY PUSH0 RETURN INVALID PUSH1 0x80 PUSH1 0x40 MSTORE CALLVALUE DUP1 ISZERO PUSH2 0xF JUMPI PUSH0 DUP1 REVERT JUMPDEST POP PUSH1 0x4 CALLDATASIZE LT PUSH2 0x7B JUMPI PUSH0 CALLDATALOAD PUSH1 0xE0 SHR DUP1 PUSH4 0x81D12C58 GT PUSH2 0x59 JUMPI DUP1 PUSH4 0x81D12C58 EQ PUSH2 0xD5 JUMPI DUP1 PUSH4 0xC58343EF EQ PUSH2 0x10A JUMPI DUP1 PUSH4 0xD7D1BBDB EQ PUSH2 0x13F JUMPI DUP1 PUSH4 0xDF89F819 EQ PUSH2 0x15B JUMPI PUSH2 0x7B JUMP JUMPDEST DUP1 PUSH4 0x2D7788DB EQ PUSH2 0x7F JUMPI DUP1 PUSH4 0x5BADBE4C EQ PUSH2 0x9B JUMPI DUP1 PUSH4 0x7E67EF12 EQ PUSH2 0xB9 JUMPI JUMPDEST PUSH0 DUP1 REVERT JUMPDEST PUSH2 0x99 PUSH1 0x4 DUP1 CALLDATASIZE SUB DUP2 ADD SWAP1 PUSH2 0x94 SWAP2 SWAP1 PUSH2 0x93A JUMP JUMPDEST PUSH2 0x177 JUMP JUMPDEST STOP JUMPDEST PUSH2 0xA3 PUSH2 0x269 JUMP JUMPDEST PUSH1 0x40 MLOAD PUSH2 0xB0 SWAP2 SWAP1 PUSH2 0x974 JUMP JUMPDEST PUSH1 0x40 MLOAD DUP1 SWAP2 SUB SWAP1 RETURN JUMPDEST PUSH2 0xD3 PUSH1 0x4 DUP1 CALLDATASIZE SUB DUP2 ADD SWAP1 PUSH2 0xCE SWAP2 SWAP1 PUSH2 0x93A JUMP JUMPDEST PUSH2 0x26E JUMP JUMPDEST STOP JUMPDEST PUSH2 0xEF PUSH1 0x4 DUP1 CALLDATASIZE SUB DUP2 ADD SWAP1 PUSH2 0xEA SWAP2 SWAP1 PUSH2 0x93A JUMP JUMPDEST PUSH2 0x3B6 JUMP JUMPDEST PUSH1 0x40 MLOAD PUSH2 0x101 SWAP7 SWAP6 SWAP5 SWAP4 SWAP3 SWAP2 SWAP1 PUSH2 0xA8A JUMP JUMPDEST PUSH1 0x40 MLOAD DUP1 SWAP2 SUB SWAP1 RETURN JUMPDEST PUSH2 0x124 PUSH1 0x4 DUP1 CALLDATASIZE SUB DUP2 ADD SWAP1 PUSH2 0x11F SWAP2 SWAP1 PUSH2 0x93A JUMP JUMPDEST PUSH2 0x506 JUMP JUMPDEST PUSH1 0x40 MLOAD PUSH2 0x136 SWAP7 SWAP6 SWAP5 SWAP4 SWAP3 SWAP2 SWAP1 PUSH2 0xA8A JUMP JUMPDEST PUSH1 0x40 MLOAD DUP1 SWAP2 SUB SWAP1 RETURN JUMPDEST PUSH2 0x159 PUSH1 0x4 DUP1 CALLDATASIZE SUB DUP2 ADD SWAP1 PUSH2 0x154 SWAP2 SWAP1 PUSH2 0x93A JUMP JUMPDEST PUSH2 0x6D6 JUMP JUMPDEST STOP JUMPDEST PUSH2 0x175 PUSH1 0x4 DUP1 CALLDATASIZE SUB DUP2 ADD SWAP1 PUSH2 0x170 SWAP2 SWAP1 PUSH2 0xC23 JUMP JUMPDEST PUSH2 0x7C7 JUMP JUMPDEST STOP JUMPDEST PUSH0 PUSH1 0x3 DUP2 GT ISZERO PUSH2 0x18A JUMPI PUSH2 0x189 PUSH2 0xA17 JUMP JUMPDEST JUMPDEST PUSH1 0x1 PUSH0 DUP4 DUP2 MSTORE PUSH1 0x20 ADD SWAP1 DUP2 MSTORE PUSH1 0x20 ADD PUSH0 KECCAK256 PUSH1 0x5 ADD PUSH0 SWAP1 SLOAD SWAP1 PUSH2 0x100 EXP SWAP1 DIV PUSH1 0xFF AND PUSH1 0x3 DUP2 GT ISZERO PUSH2 0x1BD JUMPI PUSH2 0x1BC PUSH2 0xA17 JUMP JUMPDEST JUMPDEST EQ PUSH2 0x1FD JUMPI PUSH1 0x40 MLOAD PUSH32 0x8C379A000000000000000000000000000000000000000000000000000000000 DUP2 MSTORE PUSH1 0x4 ADD PUSH2 0x1F4 SWAP1 PUSH2 0xCE3 JUMP JUMPDEST PUSH1 0x40 MLOAD DUP1 SWAP2 SUB SWAP1 REVERT JUMPDEST PUSH1 0x2 PUSH1 0x1 PUSH0 DUP4 DUP2 MSTORE PUSH1 0x20 ADD SWAP1 DUP2 MSTORE PUSH1 0x20 ADD PUSH0 KECCAK256 PUSH1 0x5 ADD PUSH0 PUSH2 0x100 EXP DUP2 SLOAD DUP2 PUSH1 0xFF MUL NOT AND SWAP1 DUP4 PUSH1 0x3 DUP2 GT ISZERO PUSH2 0x234 JUMPI PUSH2 0x233 PUSH2 0xA17 JUMP JUMPDEST JUMPDEST MUL OR SWAP1 SSTORE POP DUP1 PUSH32 0x1FDAC08E93F72FF55B24EBDF4152B7F56B98982FE9249639C1010CC52AEBCCD6 PUSH1 0x40 MLOAD PUSH1 0x40 MLOAD DUP1 SWAP2 SUB SWAP1 LOG2 POP JUMP JUMPDEST PUSH0 SLOAD DUP2 JUMP JUMPDEST PUSH1 0x1 PUSH0 DUP3 DUP2 MSTORE PUSH1 0x20 ADD SWAP1 DUP2 MSTORE PUSH1 0x20 ADD PUSH0 KECCAK256 PUSH1 0x4 ADD SLOAD TIMESTAMP GT PUSH2 0x2C4 JUMPI PUSH1 0x40 MLOAD PUSH32 0x8C379A000000000000000000000000000000000000000000000000000000000 DUP2 MSTORE PUSH1 0x4 ADD PUSH2 0x2BB SWAP1 PUSH2 0xD4B JUMP JUMPDEST PUSH1 0x40 MLOAD DUP1 SWAP2 SUB SWAP1 REVERT JUMPDEST PUSH0 PUSH1 0x3 DUP2 GT ISZERO PUSH2 0x2D7 JUMPI PUSH2 0x2D6 PUSH2 0xA17 JUMP JUMPDEST JUMPDEST PUSH1 0x1 PUSH0 DUP4 DUP2 MSTORE PUSH1 0x20 ADD SWAP1 DUP2 MSTORE PUSH1 0x20 ADD PUSH0 KECCAK256 PUSH1 0x5 ADD PUSH0 SWAP1 SLOAD SWAP1 PUSH2 0x100 EXP SWAP1 DIV PUSH1 0xFF AND PUSH1 0x3 DUP2 GT ISZERO PUSH2 0x30A JUMPI PUSH2 0x309 PUSH2 0xA17 JUMP JUMPDEST JUMPDEST EQ PUSH2 0x34A JUMPI PUSH1 0x40 MLOAD PUSH32 0x8C379A000000000000000000000000000000000000000000000000000000000 DUP2 MSTORE PUSH1 0x4 ADD PUSH2 0x341 SWAP1 PUSH2 0xDB3 JUMP JUMPDEST PUSH1 0x40 MLOAD DUP1 SWAP2 SUB SWAP1 REVERT JUMPDEST PUSH1 0x3 PUSH1 0x1 PUSH0 DUP4 DUP2 MSTORE PUSH1 0x20 ADD SWAP1 DUP2 MSTORE PUSH1 0x20 ADD PUSH0 KECCAK256 PUSH1 0x5 ADD PUSH0 PUSH2 0x100 EXP DUP2 SLOAD DUP2 PUSH1 0xFF MUL NOT AND SWAP1 DUP4 PUSH1 0x3 DUP2 GT ISZERO PUSH2 0x381 JUMPI PUSH2 0x380 PUSH2 0xA17 JUMP JUMPDEST JUMPDEST MUL OR SWAP1 SSTORE POP DUP1 PUSH32 0x156422928A222D0605F7C85C73DE1C726451B2032677324E1D205C5C26937C57 PUSH1 0x40 MLOAD PUSH1 0x40 MLOAD DUP1 SWAP2 SUB SWAP1 LOG2 POP JUMP JUMPDEST PUSH1 0x1 PUSH1 0x20 MSTORE DUP1 PUSH0 MSTORE PUSH1 0x40 PUSH0 KECCAK256 PUSH0 SWAP2 POP SWAP1 POP DUP1 PUSH0 ADD SLOAD SWAP1 DUP1 PUSH1 0x1 ADD DUP1 SLOAD PUSH2 0x3DB SWAP1 PUSH2 0xDFE JUMP JUMPDEST DUP1 PUSH1 0x1F ADD PUSH1 0x20 DUP1 SWAP2 DIV MUL PUSH1 0x20 ADD PUSH1 0x40 MLOAD SWAP1 DUP2 ADD PUSH1 0x40 MSTORE DUP1 SWAP3 SWAP2 SWAP1 DUP2 DUP2 MSTORE PUSH1 0x20 ADD DUP3 DUP1 SLOAD PUSH2 0x407 SWAP1 PUSH2 0xDFE JUMP JUMPDEST DUP1 ISZERO PUSH2 0x452 JUMPI DUP1 PUSH1 0x1F LT PUSH2 0x429 JUMPI PUSH2 0x100 DUP1 DUP4 SLOAD DIV MUL DUP4 MSTORE SWAP2 PUSH1 0x20 ADD SWAP2 PUSH2 0x452 JUMP JUMPDEST DUP3 ADD SWAP2 SWAP1 PUSH0 MSTORE PUSH1 0x20 PUSH0 KECCAK256 SWAP1 JUMPDEST DUP2 SLOAD DUP2 MSTORE SWAP1 PUSH1 0x1 ADD SWAP1 PUSH1 0x20 ADD DUP1 DUP4 GT PUSH2 0x435 JUMPI DUP3 SWAP1 SUB PUSH1 0x1F AND DUP3 ADD SWAP2 JUMPDEST POP POP POP POP POP SWAP1 DUP1 PUSH1 0x2 ADD DUP1 SLOAD PUSH2 0x467 SWAP1 PUSH2 0xDFE JUMP JUMPDEST DUP1 PUSH1 0x1F ADD PUSH1 0x20 DUP1 SWAP2 DIV MUL PUSH1 0x20 ADD PUSH1 0x40 MLOAD SWAP1 DUP2 ADD PUSH1 0x40 MSTORE DUP1 SWAP3 SWAP2 SWAP1 DUP2 DUP2 MSTORE PUSH1 0x20 ADD DUP3 DUP1 SLOAD PUSH2 0x493 SWAP1 PUSH2 0xDFE JUMP JUMPDEST DUP1 ISZERO PUSH2 0x4DE JUMPI DUP1 PUSH1 0x1F LT PUSH2 0x4B5 JUMPI PUSH2 0x100 DUP1 DUP4 SLOAD DIV MUL DUP4 MSTORE SWAP2 PUSH1 0x20 ADD SWAP2 PUSH2 0x4DE JUMP JUMPDEST DUP3 ADD SWAP2 SWAP1 PUSH0 MSTORE PUSH1 0x20 PUSH0 KECCAK256 SWAP1 JUMPDEST DUP2 SLOAD DUP2 MSTORE SWAP1 PUSH1 0x1 ADD SWAP1 PUSH1 0x20 ADD DUP1 DUP4 GT PUSH2 0x4C1 JUMPI DUP3 SWAP1 SUB PUSH1 0x1F AND DUP3 ADD SWAP2 JUMPDEST POP POP POP POP POP SWAP1 DUP1 PUSH1 0x3 ADD SLOAD SWAP1 DUP1 PUSH1 0x4 ADD SLOAD SWAP1 DUP1 PUSH1 0x5 ADD PUSH0 SWAP1 SLOAD SWAP1 PUSH2 0x100 EXP SWAP1 DIV PUSH1 0xFF AND SWAP1 POP DUP7 JUMP JUMPDEST PUSH0 PUSH1 0x60 DUP1 PUSH0 DUP1 PUSH0 DUP1 PUSH1 0x1 PUSH0 DUP10 DUP2 MSTORE PUSH1 0x20 ADD SWAP1 DUP2 MSTORE PUSH1 0x20 ADD PUSH0 KECCAK256 PUSH1 0x40 MLOAD DUP1 PUSH1 0xC0 ADD PUSH1 0x40 MSTORE SWAP1 DUP2 PUSH0 DUP3 ADD SLOAD DUP2 MSTORE PUSH1 0x20 ADD PUSH1 0x1 DUP3 ADD DUP1 SLOAD PUSH2 0x543 SWAP1 PUSH2 0xDFE JUMP JUMPDEST DUP1 PUSH1 0x1F ADD PUSH1 0x20 DUP1 SWAP2 DIV MUL PUSH1 0x20 ADD PUSH1 0x40 MLOAD SWAP1 DUP2 ADD PUSH1 0x40 MSTORE DUP1 SWAP3 SWAP2 SWAP1 DUP2 DUP2 MSTORE PUSH1 0x20 ADD DUP3 DUP1 SLOAD PUSH2 0x56F SWAP1 PUSH2 0xDFE JUMP JUMPDEST DUP1 ISZERO PUSH2 0x5BA JUMPI DUP1 PUSH1 0x1F LT PUSH2 0x591 JUMPI PUSH2 0x100 DUP1 DUP4 SLOAD DIV MUL DUP4 MSTORE SWAP2 PUSH1 0x20 ADD SWAP2 PUSH2 0x5BA JUMP JUMPDEST DUP3 ADD SWAP2 SWAP1 PUSH0 MSTORE PUSH1 0x20 PUSH0 KECCAK256 SWAP1 JUMPDEST DUP2 SLOAD DUP2 MSTORE SWAP1 PUSH1 0x1 ADD SWAP1 PUSH1 0x20 ADD DUP1 DUP4 GT PUSH2 0x59D JUMPI DUP3 SWAP1 SUB PUSH1 0x1F AND DUP3 ADD SWAP2 JUMPDEST POP POP POP POP POP DUP2 MSTORE PUSH1 0x20 ADD PUSH1 0x2 DUP3 ADD DUP1 SLOAD PUSH2 0x5D3 SWAP1 PUSH2 0xDFE JUMP JUMPDEST DUP1 PUSH1 0x1F ADD PUSH1 0x20 DUP1 SWAP2 DIV MUL PUSH1 0x20 ADD PUSH1 0x40 MLOAD SWAP1 DUP2 ADD PUSH1 0x40 MSTORE DUP1 SWAP3 SWAP2 SWAP1 DUP2 DUP2 MSTORE PUSH1 0x20 ADD DUP3 DUP1 SLOAD PUSH2 0x5FF SWAP1 PUSH2 0xDFE JUMP JUMPDEST DUP1 ISZERO PUSH2 0x64A JUMPI DUP1 PUSH1 0x1F LT PUSH2 0x621 JUMPI PUSH2 0x100 DUP1 DUP4 SLOAD DIV MUL DUP4 MSTORE SWAP2 PUSH1 0x20 ADD SWAP2 PUSH2 0x64A JUMP JUMPDEST DUP3 ADD SWAP2 SWAP1 PUSH0 MSTORE PUSH1 0x20 PUSH0 KECCAK256 SWAP1 JUMPDEST DUP2 SLOAD DUP2 MSTORE SWAP1 PUSH1 0x1 ADD SWAP1 PUSH1 0x20 ADD DUP1 DUP4 GT PUSH2 0x62D JUMPI DUP3 SWAP1 SUB PUSH1 0x1F AND DUP3 ADD SWAP2 JUMPDEST POP POP POP POP POP DUP2 MSTORE PUSH1 0x20 ADD PUSH1 0x3 DUP3 ADD SLOAD DUP2 MSTORE PUSH1 0x20 ADD PUSH1 0x4 DUP3 ADD SLOAD DUP2 MSTORE PUSH1 0x20 ADD PUSH1 0x5 DUP3 ADD PUSH0 SWAP1 SLOAD SWAP1 PUSH2 0x100 EXP SWAP1 DIV PUSH1 0xFF AND PUSH1 0x3 DUP2 GT ISZERO PUSH2 0x68B JUMPI PUSH2 0x68A PUSH2 0xA17 JUMP JUMPDEST JUMPDEST PUSH1 0x3 DUP2 GT ISZERO PUSH2 0x69D JUMPI PUSH2 0x69C PUSH2 0xA17 JUMP JUMPDEST JUMPDEST DUP2 MSTORE POP POP SWAP1 POP DUP1 PUSH0 ADD MLOAD DUP2 PUSH1 0x20 ADD MLOAD DUP3 PUSH1 0x40 ADD MLOAD DUP4 PUSH1 0x60 ADD MLOAD DUP5 PUSH1 0x80 ADD MLOAD DUP6 PUSH1 0xA0 ADD MLOAD SWAP7 POP SWAP7 POP SWAP7 POP SWAP7 POP SWAP7 POP SWAP7 POP POP SWAP2 SWAP4 SWAP6 POP SWAP2 SWAP4 SWAP6 JUMP JUMPDEST PUSH0 PUSH1 0x3 DUP2 GT ISZERO PUSH2 0x6E9 JUMPI PUSH2 0x6E8 PUSH2 0xA17 JUMP JUMPDEST JUMPDEST PUSH1 0x1 PUSH0 DUP4 DUP2 MSTORE PUSH1 0x20 ADD SWAP1 DUP2 MSTORE PUSH1 0x20 ADD PUSH0 KECCAK256 PUSH1 0x5 ADD PUSH0 SWAP1 SLOAD SWAP1 PUSH2 0x100 EXP SWAP1 DIV PUSH1 0xFF AND PUSH1 0x3 DUP2 GT ISZERO PUSH2 0x71C JUMPI PUSH2 0x71B PUSH2 0xA17 JUMP JUMPDEST JUMPDEST EQ PUSH2 0x75C JUMPI PUSH1 0x40 MLOAD PUSH32 0x8C379A000000000000000000000000000000000000000000000000000000000 DUP2 MSTORE PUSH1 0x4 ADD PUSH2 0x753 SWAP1 PUSH2 0xCE3 JUMP JUMPDEST PUSH1 0x40 MLOAD DUP1 SWAP2 SUB SWAP1 REVERT JUMPDEST PUSH1 0x1 DUP1 PUSH0 DUP4 DUP2 MSTORE PUSH1 0x20 ADD SWAP1 DUP2 MSTORE PUSH1 0x20 ADD PUSH0 KECCAK256 PUSH1 0x5 ADD PUSH0 PUSH2 0x100 EXP DUP2 SLOAD DUP2 PUSH1 0xFF MUL NOT AND SWAP1 DUP4 PUSH1 0x3 DUP2 GT ISZERO PUSH2 0x792 JUMPI PUSH2 0x791 PUSH2 0xA17 JUMP JUMPDEST JUMPDEST MUL OR SWAP1 SSTORE POP DUP1 PUSH32 0xBECBBD7543B68BAAAF7E9C3FD12E4719F1F506F4253ABEF4A6573D0ADF3A73ED PUSH1 0x40 MLOAD PUSH1 0x40 MLOAD DUP1 SWAP2 SUB SWAP1 LOG2 POP JUMP JUMPDEST PUSH0 DUP1 DUP2 SLOAD DUP1 SWAP3 SWAP2 SWAP1 PUSH2 0x7D8 SWAP1 PUSH2 0xE5B JUMP JUMPDEST SWAP2 SWAP1 POP SSTORE POP PUSH1 0x40 MLOAD DUP1 PUSH1 0xC0 ADD PUSH1 0x40 MSTORE DUP1 PUSH0 SLOAD DUP2 MSTORE PUSH1 0x20 ADD DUP4 DUP2 MSTORE PUSH1 0x20 ADD DUP3 DUP2 MSTORE PUSH1 0x20 ADD TIMESTAMP DUP2 MSTORE PUSH1 0x20 ADD PUSH3 0x3F480 TIMESTAMP PUSH2 0x810 SWAP2 SWAP1 PUSH2 0xEA2 JUMP JUMPDEST DUP2 MSTORE PUSH1 0x20 ADD PUSH0 PUSH1 0x3 DUP2 GT ISZERO PUSH2 0x828 JUMPI PUSH2 0x827 PUSH2 0xA17 JUMP JUMPDEST JUMPDEST DUP2 MSTORE POP PUSH1 0x1 PUSH0 DUP1 SLOAD DUP2 MSTORE PUSH1 0x20 ADD SWAP1 DUP2 MSTORE PUSH1 0x20 ADD PUSH0 KECCAK256 PUSH0 DUP3 ADD MLOAD DUP2 PUSH0 ADD SSTORE PUSH1 0x20 DUP3 ADD MLOAD DUP2 PUSH1 0x1 ADD SWAP1 DUP2 PUSH2 0x85A SWAP2 SWAP1 PUSH2 0x1072 JUMP JUMPDEST POP PUSH1 0x40 DUP3 ADD MLOAD DUP2 PUSH1 0x2 ADD SWAP1 DUP2 PUSH2 0x870 SWAP2 SWAP1 PUSH2 0x1072 JUMP JUMPDEST POP PUSH1 0x60 DUP3 ADD MLOAD DUP2 PUSH1 0x3 ADD SSTORE PUSH1 0x80 DUP3 ADD MLOAD DUP2 PUSH1 0x4 ADD SSTORE PUSH1 0xA0 DUP3 ADD MLOAD DUP2 PUSH1 0x5 ADD PUSH0 PUSH2 0x100 EXP DUP2 SLOAD DUP2 PUSH1 0xFF MUL NOT AND SWAP1 DUP4 PUSH1 0x3 DUP2 GT ISZERO PUSH2 0x8AF JUMPI PUSH2 0x8AE PUSH2 0xA17 JUMP JUMPDEST JUMPDEST MUL OR SWAP1 SSTORE POP SWAP1 POP POP PUSH0 SLOAD PUSH32 0x2F218E1B6533EFE437F7A6DAFAF76A0A09F1F245838D66142E6CBD7AF541ECF4 DUP4 DUP4 PUSH1 0x40 MLOAD PUSH2 0x8EA SWAP3 SWAP2 SWAP1 PUSH2 0x1141 JUMP JUMPDEST PUSH1 0x40 MLOAD DUP1 SWAP2 SUB SWAP1 LOG2 POP POP JUMP JUMPDEST PUSH0 PUSH1 0x40 MLOAD SWAP1 POP SWAP1 JUMP JUMPDEST PUSH0 DUP1 REVERT JUMPDEST PUSH0 DUP1 REVERT JUMPDEST PUSH0 DUP2 SWAP1 POP SWAP2 SWAP1 POP JUMP JUMPDEST PUSH2 0x919 DUP2 PUSH2 0x907 JUMP JUMPDEST DUP2 EQ PUSH2 0x923 JUMPI PUSH0 DUP1 REVERT JUMPDEST POP JUMP JUMPDEST PUSH0 DUP2 CALLDATALOAD SWAP1 POP PUSH2 0x934 DUP2 PUSH2 0x910 JUMP JUMPDEST SWAP3 SWAP2 POP POP JUMP JUMPDEST PUSH0 PUSH1 0x20 DUP3 DUP5 SUB SLT ISZERO PUSH2 0x94F JUMPI PUSH2 0x94E PUSH2 0x8FF JUMP JUMPDEST JUMPDEST PUSH0 PUSH2 0x95C DUP5 DUP3 DUP6 ADD PUSH2 0x926 JUMP JUMPDEST SWAP2 POP POP SWAP3 SWAP2 POP POP JUMP JUMPDEST PUSH2 0x96E DUP2 PUSH2 0x907 JUMP JUMPDEST DUP3 MSTORE POP POP JUMP JUMPDEST PUSH0 PUSH1 0x20 DUP3 ADD SWAP1 POP PUSH2 0x987 PUSH0 DUP4 ADD DUP5 PUSH2 0x965 JUMP JUMPDEST SWAP3 SWAP2 POP POP JUMP JUMPDEST PUSH0 DUP2 MLOAD SWAP1 POP SWAP2 SWAP1 POP JUMP JUMPDEST PUSH0 DUP3 DUP3 MSTORE PUSH1 0x20 DUP3 ADD SWAP1 POP SWAP3 SWAP2 POP POP JUMP JUMPDEST PUSH0 JUMPDEST DUP4 DUP2 LT ISZERO PUSH2 0x9C4 JUMPI DUP1 DUP3 ADD MLOAD DUP2 DUP5 ADD MSTORE PUSH1 0x20 DUP2 ADD SWAP1 POP PUSH2 0x9A9 JUMP JUMPDEST PUSH0 DUP5 DUP5 ADD MSTORE POP POP POP POP JUMP JUMPDEST PUSH0 PUSH1 0x1F NOT PUSH1 0x1F DUP4 ADD AND SWAP1 POP SWAP2 SWAP1 POP JUMP JUMPDEST PUSH0 PUSH2 0x9E9 DUP3 PUSH2 0x98D JUMP JUMPDEST PUSH2 0x9F3 DUP2 DUP6 PUSH2 0x997 JUMP JUMPDEST SWAP4 POP PUSH2 0xA03 DUP2 DUP6 PUSH1 0x20 DUP7 ADD PUSH2 0x9A7 JUMP JUMPDEST PUSH2 0xA0C DUP2 PUSH2 0x9CF JUMP JUMPDEST DUP5 ADD SWAP2 POP POP SWAP3 SWAP2 POP POP JUMP JUMPDEST PUSH32 0x4E487B7100000000000000000000000000000000000000000000000000000000 PUSH0 MSTORE PUSH1 0x21 PUSH1 0x4 MSTORE PUSH1 0x24 PUSH0 REVERT JUMPDEST PUSH1 0x4 DUP2 LT PUSH2 0xA55 JUMPI PUSH2 0xA54 PUSH2 0xA17 JUMP JUMPDEST JUMPDEST POP JUMP JUMPDEST PUSH0 DUP2 SWAP1 POP PUSH2 0xA65 DUP3 PUSH2 0xA44 JUMP JUMPDEST SWAP2 SWAP1 POP JUMP JUMPDEST PUSH0 PUSH2 0xA74 DUP3 PUSH2 0xA58 JUMP JUMPDEST SWAP1 POP SWAP2 SWAP1 POP JUMP JUMPDEST PUSH2 0xA84 DUP2 PUSH2 0xA6A JUMP JUMPDEST DUP3 MSTORE POP POP JUMP JUMPDEST PUSH0 PUSH1 0xC0 DUP3 ADD SWAP1 POP PUSH2 0xA9D PUSH0 DUP4 ADD DUP10 PUSH2 0x965 JUMP JUMPDEST DUP2 DUP2 SUB PUSH1 0x20 DUP4 ADD MSTORE PUSH2 0xAAF DUP2 DUP9 PUSH2 0x9DF JUMP JUMPDEST SWAP1 POP DUP2 DUP2 SUB PUSH1 0x40 DUP4 ADD MSTORE PUSH2 0xAC3 DUP2 DUP8 PUSH2 0x9DF JUMP JUMPDEST SWAP1 POP PUSH2 0xAD2 PUSH1 0x60 DUP4 ADD DUP7 PUSH2 0x965 JUMP JUMPDEST PUSH2 0xADF PUSH1 0x80 DUP4 ADD DUP6 PUSH2 0x965 JUMP JUMPDEST PUSH2 0xAEC PUSH1 0xA0 DUP4 ADD DUP5 PUSH2 0xA7B JUMP JUMPDEST SWAP8 SWAP7 POP POP POP POP POP POP POP JUMP JUMPDEST PUSH0 DUP1 REVERT JUMPDEST PUSH0 DUP1 REVERT JUMPDEST PUSH32 0x4E487B7100000000000000000000000000000000000000000000000000000000 PUSH0 MSTORE PUSH1 0x41 PUSH1 0x4 MSTORE PUSH1 0x24 PUSH0 REVERT JUMPDEST PUSH2 0xB35 DUP3 PUSH2 0x9CF JUMP JUMPDEST DUP2 ADD DUP2 DUP2 LT PUSH8 0xFFFFFFFFFFFFFFFF DUP3 GT OR ISZERO PUSH2 0xB54 JUMPI PUSH2 0xB53 PUSH2 0xAFF JUMP JUMPDEST JUMPDEST DUP1 PUSH1 0x40 MSTORE POP POP POP JUMP JUMPDEST PUSH0 PUSH2 0xB66 PUSH2 0x8F6 JUMP JUMPDEST SWAP1 POP PUSH2 0xB72 DUP3 DUP3 PUSH2 0xB2C JUMP JUMPDEST SWAP2 SWAP1 POP JUMP JUMPDEST PUSH0 PUSH8 0xFFFFFFFFFFFFFFFF DUP3 GT ISZERO PUSH2 0xB91 JUMPI PUSH2 0xB90 PUSH2 0xAFF JUMP JUMPDEST JUMPDEST PUSH2 0xB9A DUP3 PUSH2 0x9CF JUMP JUMPDEST SWAP1 POP PUSH1 0x20 DUP2 ADD SWAP1 POP SWAP2 SWAP1 POP JUMP JUMPDEST DUP3 DUP2 DUP4 CALLDATACOPY PUSH0 DUP4 DUP4 ADD MSTORE POP POP POP JUMP JUMPDEST PUSH0 PUSH2 0xBC7 PUSH2 0xBC2 DUP5 PUSH2 0xB77 JUMP JUMPDEST PUSH2 0xB5D JUMP JUMPDEST SWAP1 POP DUP3 DUP2 MSTORE PUSH1 0x20 DUP2 ADD DUP5 DUP5 DUP5 ADD GT ISZERO PUSH2 0xBE3 JUMPI PUSH2 0xBE2 PUSH2 0xAFB JUMP JUMPDEST JUMPDEST PUSH2 0xBEE DUP5 DUP3 DUP6 PUSH2 0xBA7 JUMP JUMPDEST POP SWAP4 SWAP3 POP POP POP JUMP JUMPDEST PUSH0 DUP3 PUSH1 0x1F DUP4 ADD SLT PUSH2 0xC0A JUMPI PUSH2 0xC09 PUSH2 0xAF7 JUMP JUMPDEST JUMPDEST DUP2 CALLDATALOAD PUSH2 0xC1A DUP5 DUP3 PUSH1 0x20 DUP7 ADD PUSH2 0xBB5 JUMP JUMPDEST SWAP2 POP POP SWAP3 SWAP2 POP POP JUMP JUMPDEST PUSH0 DUP1 PUSH1 0x40 DUP4 DUP6 SUB SLT ISZERO PUSH2 0xC39 JUMPI PUSH2 0xC38 PUSH2 0x8FF JUMP JUMPDEST JUMPDEST PUSH0 DUP4 ADD CALLDATALOAD PUSH8 0xFFFFFFFFFFFFFFFF DUP2 GT ISZERO PUSH2 0xC56 JUMPI PUSH2 0xC55 PUSH2 0x903 JUMP JUMPDEST JUMPDEST PUSH2 0xC62 DUP6 DUP3 DUP7 ADD PUSH2 0xBF6 JUMP JUMPDEST SWAP3 POP POP PUSH1 0x20 DUP4 ADD CALLDATALOAD PUSH8 0xFFFFFFFFFFFFFFFF DUP2 GT ISZERO PUSH2 0xC83 JUMPI PUSH2 0xC82 PUSH2 0x903 JUMP JUMPDEST JUMPDEST PUSH2 0xC8F DUP6 DUP3 DUP7 ADD PUSH2 0xBF6 JUMP JUMPDEST SWAP2 POP POP SWAP3 POP SWAP3 SWAP1 POP JUMP JUMPDEST PUSH32 0x52657175657374206973206E6F742070656E64696E6700000000000000000000 PUSH0 DUP3 ADD MSTORE POP JUMP JUMPDEST PUSH0 PUSH2 0xCCD PUSH1 0x16 DUP4 PUSH2 0x997 JUMP JUMPDEST SWAP2 POP PUSH2 0xCD8 DUP3 PUSH2 0xC99 JUMP JUMPDEST PUSH1 0x20 DUP3 ADD SWAP1 POP SWAP2 SWAP1 POP JUMP JUMPDEST PUSH0 PUSH1 0x20 DUP3 ADD SWAP1 POP DUP2 DUP2 SUB PUSH0 DUP4 ADD MSTORE PUSH2 0xCFA DUP2 PUSH2 0xCC1 JUMP JUMPDEST SWAP1 POP SWAP2 SWAP1 POP JUMP JUMPDEST PUSH32 0x4E6F742065787069726564207965740000000000000000000000000000000000 PUSH0 DUP3 ADD MSTORE POP JUMP JUMPDEST PUSH0 PUSH2 0xD35 PUSH1 0xF DUP4 PUSH2 0x997 JUMP JUMPDEST SWAP2 POP PUSH2 0xD40 DUP3 PUSH2 0xD01 JUMP JUMPDEST PUSH1 0x20 DUP3 ADD SWAP1 POP SWAP2 SWAP1 POP JUMP JUMPDEST PUSH0 PUSH1 0x20 DUP3 ADD SWAP1 POP DUP2 DUP2 SUB PUSH0 DUP4 ADD MSTORE PUSH2 0xD62 DUP2 PUSH2 0xD29 JUMP JUMPDEST SWAP1 POP SWAP2 SWAP1 POP JUMP JUMPDEST PUSH32 0x416C72656164792070726F636573736564000000000000000000000000000000 PUSH0 DUP3 ADD MSTORE POP JUMP JUMPDEST PUSH0 PUSH2 0xD9D PUSH1 0x11 DUP4 PUSH2 0x997 JUMP JUMPDEST SWAP2 POP PUSH2 0xDA8 DUP3 PUSH2 0xD69 JUMP JUMPDEST PUSH1 0x20 DUP3 ADD SWAP1 POP SWAP2 SWAP1 POP JUMP JUMPDEST PUSH0 PUSH1 0x20 DUP3 ADD SWAP1 POP DUP2 DUP2 SUB PUSH0 DUP4 ADD MSTORE PUSH2 0xDCA DUP2 PUSH2 0xD91 JUMP JUMPDEST SWAP1 POP SWAP2 SWAP1 POP JUMP JUMPDEST PUSH32 0x4E487B7100000000000000000000000000000000000000000000000000000000 PUSH0 MSTORE PUSH1 0x22 PUSH1 0x4 MSTORE PUSH1 0x24 PUSH0 REVERT JUMPDEST PUSH0 PUSH1 0x2 DUP3 DIV SWAP1 POP PUSH1 0x1 DUP3 AND DUP1 PUSH2 0xE15 JUMPI PUSH1 0x7F DUP3 AND SWAP2 POP JUMPDEST PUSH1 0x20 DUP3 LT DUP2 SUB PUSH2 0xE28 JUMPI PUSH2 0xE27 PUSH2 0xDD1 JUMP JUMPDEST JUMPDEST POP SWAP2 SWAP1 POP JUMP JUMPDEST PUSH32 0x4E487B7100000000000000000000000000000000000000000000000000000000 PUSH0 MSTORE PUSH1 0x11 PUSH1 0x4 MSTORE PUSH1 0x24 PUSH0 REVERT JUMPDEST PUSH0 PUSH2 0xE65 DUP3 PUSH2 0x907 JUMP JUMPDEST SWAP2 POP PUSH32 0xFFFFFFFFFFFFFFFFFFFFFFFFFFFFFFFFFFFFFFFFFFFFFFFFFFFFFFFFFFFFFFFF DUP3 SUB PUSH2 0xE97 JUMPI PUSH2 0xE96 PUSH2 0xE2E JUMP JUMPDEST JUMPDEST PUSH1 0x1 DUP3 ADD SWAP1 POP SWAP2 SWAP1 POP JUMP JUMPDEST PUSH0 PUSH2 0xEAC DUP3 PUSH2 0x907 JUMP JUMPDEST SWAP2 POP PUSH2 0xEB7 DUP4 PUSH2 0x907 JUMP JUMPDEST SWAP3 POP DUP3 DUP3 ADD SWAP1 POP DUP1 DUP3 GT ISZERO PUSH2 0xECF JUMPI PUSH2 0xECE PUSH2 0xE2E JUMP JUMPDEST JUMPDEST SWAP3 SWAP2 POP POP JUMP JUMPDEST PUSH0 DUP2 SWAP1 POP DUP2 PUSH0 MSTORE PUSH1 0x20 PUSH0 KECCAK256 SWAP1 POP SWAP2 SWAP1 POP JUMP JUMPDEST PUSH0 PUSH1 0x20 PUSH1 0x1F DUP4 ADD DIV SWAP1 POP SWAP2 SWAP1 POP JUMP JUMPDEST PUSH0 DUP3 DUP3 SHL SWAP1 POP SWAP3 SWAP2 POP POP JUMP JUMPDEST PUSH0 PUSH1 0x8 DUP4 MUL PUSH2 0xF31 PUSH32 0xFFFFFFFFFFFFFFFFFFFFFFFFFFFFFFFFFFFFFFFFFFFFFFFFFFFFFFFFFFFFFFFF DUP3 PUSH2 0xEF6 JUMP JUMPDEST PUSH2 0xF3B DUP7 DUP4 PUSH2 0xEF6 JUMP JUMPDEST SWAP6 POP DUP1 NOT DUP5 AND SWAP4 POP DUP1 DUP7 AND DUP5 OR SWAP3 POP POP POP SWAP4 SWAP3 POP POP POP JUMP JUMPDEST PUSH0 DUP2 SWAP1 POP SWAP2 SWAP1 POP JUMP JUMPDEST PUSH0 PUSH2 0xF76 PUSH2 0xF71 PUSH2 0xF6C DUP5 PUSH2 0x907 JUMP JUMPDEST PUSH2 0xF53 JUMP JUMPDEST PUSH2 0x907 JUMP JUMPDEST SWAP1 POP SWAP2 SWAP1 POP JUMP JUMPDEST PUSH0 DUP2 SWAP1 POP SWAP2 SWAP1 POP JUMP JUMPDEST PUSH2 0xF8F DUP4 PUSH2 0xF5C JUMP JUMPDEST PUSH2 0xFA3 PUSH2 0xF9B DUP3 PUSH2 0xF7D JUMP JUMPDEST DUP5 DUP5 SLOAD PUSH2 0xF02 JUMP JUMPDEST DUP3 SSTORE POP POP POP POP JUMP JUMPDEST PUSH0 SWAP1 JUMP JUMPDEST PUSH2 0xFB7 PUSH2 0xFAB JUMP JUMPDEST PUSH2 0xFC2 DUP2 DUP5 DUP5 PUSH2 0xF86 JUMP JUMPDEST POP POP POP JUMP JUMPDEST JUMPDEST DUP2 DUP2 LT ISZERO PUSH2 0xFE5 JUMPI PUSH2 0xFDA PUSH0 DUP3 PUSH2 0xFAF JUMP JUMPDEST PUSH1 0x1 DUP2 ADD SWAP1 POP PUSH2 0xFC8 JUMP JUMPDEST POP POP JUMP JUMPDEST PUSH1 0x1F DUP3 GT ISZERO PUSH2 0x102A JUMPI PUSH2 0xFFB DUP2 PUSH2 0xED5 JUMP JUMPDEST PUSH2 0x1004 DUP5 PUSH2 0xEE7 JUMP JUMPDEST DUP2 ADD PUSH1 0x20 DUP6 LT ISZERO PUSH2 0x1013 JUMPI DUP2 SWAP1 POP JUMPDEST PUSH2 0x1027 PUSH2 0x101F DUP6 PUSH2 0xEE7 JUMP JUMPDEST DUP4 ADD DUP3 PUSH2 0xFC7 JUMP JUMPDEST POP POP JUMPDEST POP POP POP JUMP JUMPDEST PUSH0 DUP3 DUP3 SHR SWAP1 POP SWAP3 SWAP2 POP POP JUMP JUMPDEST PUSH0 PUSH2 0x104A PUSH0 NOT DUP5 PUSH1 0x8 MUL PUSH2 0x102F JUMP JUMPDEST NOT DUP1 DUP4 AND SWAP2 POP POP SWAP3 SWAP2 POP POP JUMP JUMPDEST PUSH0 PUSH2 0x1062 DUP4 DUP4 PUSH2 0x103B JUMP JUMPDEST SWAP2 POP DUP3 PUSH1 0x2 MUL DUP3 OR SWAP1 POP SWAP3 SWAP2 POP POP JUMP JUMPDEST PUSH2 0x107B DUP3 PUSH2 0x98D JUMP JUMPDEST PUSH8 0xFFFFFFFFFFFFFFFF DUP2 GT ISZERO PUSH2 0x1094 JUMPI PUSH2 0x1093 PUSH2 0xAFF JUMP JUMPDEST JUMPDEST PUSH2 0x109E DUP3 SLOAD PUSH2 0xDFE JUMP JUMPDEST PUSH2 0x10A9 DUP3 DUP3 DUP6 PUSH2 0xFE9 JUMP JUMPDEST PUSH0 PUSH1 0x20 SWAP1 POP PUSH1 0x1F DUP4 GT PUSH1 0x1 DUP2 EQ PUSH2 0x10DA JUMPI PUSH0 DUP5 ISZERO PUSH2 0x10C8 JUMPI DUP3 DUP8 ADD MLOAD SWAP1 POP JUMPDEST PUSH2 0x10D2 DUP6 DUP3 PUSH2 0x1057 JUMP JUMPDEST DUP7 SSTORE POP PUSH2 0x1139 JUMP JUMPDEST PUSH1 0x1F NOT DUP5 AND PUSH2 0x10E8 DUP7 PUSH2 0xED5 JUMP JUMPDEST PUSH0 JUMPDEST DUP3 DUP2 LT ISZERO PUSH2 0x110F JUMPI DUP5 DUP10 ADD MLOAD DUP3 SSTORE PUSH1 0x1 DUP3 ADD SWAP2 POP PUSH1 0x20 DUP6 ADD SWAP5 POP PUSH1 0x20 DUP2 ADD SWAP1 POP PUSH2 0x10EA JUMP JUMPDEST DUP7 DUP4 LT ISZERO PUSH2 0x112C JUMPI DUP5 DUP10 ADD MLOAD PUSH2 0x1128 PUSH1 0x1F DUP10 AND DUP3 PUSH2 0x103B JUMP JUMPDEST DUP4 SSTORE POP JUMPDEST PUSH1 0x1 PUSH1 0x2 DUP9 MUL ADD DUP9 SSTORE POP POP POP JUMPDEST POP POP POP POP POP POP JUMP JUMPDEST PUSH0 PUSH1 0x40 DUP3 ADD SWAP1 POP DUP2 DUP2 SUB PUSH0 DUP4 ADD MSTORE PUSH2 0x1159 DUP2 DUP6 PUSH2 0x9DF JUMP JUMPDEST SWAP1 POP DUP2 DUP2 SUB PUSH1 0x20 DUP4 ADD MSTORE PUSH2 0x116D DUP2 DUP5 PUSH2 0x9DF JUMP JUMPDEST SWAP1 POP SWAP4 SWAP3 POP POP POP JUMP INVALID LOG2 PUSH5 0x6970667358 0x22 SLT KECCAK256 PUSH15 0x589A7968FB894915E833A293E1EEE2 0xCF 0xAA 0xE8 0xC2 0xFC DUP8 0xD4 0xC4 PUSH22 0xD0A7CA443FE67E64736F6C6343000814003300000000 "},"methodIdentifiers":{"approveRequest(uint256)":"d7d1bbdb","createRequest(string,string)":"df89f819","expireRequest(uint256)":"7e67ef12","getRequest(uint256)":"c58343ef","rejectRequest(uint256)":"2d7788db","requestCount()":"5badbe4c","requests(uint256)":"81d12c58"}}}}}