{
  "_format": "hh3-artifact-1",
  "contractName": "ApprovalRegistry",
  "sourceName": "contracts/ApprovalRegistry.sol",
  "abi": [
    {
      "anonymous": false,
      "inputs": [
        {
          "indexed": true,
          "internalType": "uint256",
          "name": "id",
          "type": "uint256"
        }
      ],
      "name": "RequestApproved",
      "type": "event"
    },
    {
      "anonymous": false,
      "inputs": [
        {
          "indexed": true,
          "internalType": "uint256",
          "name": "id",
          "type": "uint256"
        },
        {
          "indexed": false,
          "internalType": "string",
          "name": "approvalHash",
          "type": "string"
        },
        {
          "indexed": false,
          "internalType": "string",
          "name": "requestedAmount",
          "type": "string"
        }
      ],
      "name": "RequestCreated",
      "type": "event"
    },
    {
      "anonymous": false,
      "inputs": [
        {
          "indexed": true,
          "internalType": "uint256",
          "name": "id",
          "type": "uint256"
        }
      ],
      "name": "RequestExpired",
      "type": "event"
    },
    {
      "anonymous": false,
      "inputs": [
        {
          "indexed": true,
          "internalType": "uint256",
          "name": "id",
          "type": "uint256"
        }
      ],
      "name": "RequestRejected",
      "type": "event"
    },
    {
      "inputs": [
        {
          "internalType": "uint256",
          "name": "id",
          "type": "uint256"
        }
      ],
      "name": "approveRequest",
      "outputs": [],
      "stateMutability": "nonpayable",
      "type": "function"
    },
    {
      "inputs": [
        {
          "internalType": "string",
          "name": "approvalHash",
          "type": "string"
        },
        {
          "internalType": "string",
          "name": "requestedAmount",
          "type": "string"
        }
      ],
      "name": "createRequest",
      "outputs": [],
      "stateMutability": "nonpayable",
      "type": "function"
    },
    {
      "inputs": [
        {
          "internalType": "uint256",
          "name": "id",
          "type": "uint256"
        }
      ],
      "name": "expireRequest",
      "outputs": [],
      "stateMutability": "nonpayable",
      "type": "function"
    },
    {
      "inputs": [
        {
          "internalType": "uint256",
          "name": "id",
          "type": "uint256"
        }
      ],
      "name": "getRequest",
      "outputs": [
        {
          "internalType": "uint256",
          "name": "requestId",
          "type": "uint256"
        },
        {
          "internalType": "string",
          "name": "approvalHash",
          "type": "string"
        },
        {
          "internalType": "string",
          "name": "requestedAmount",
          "type": "string"
        },
        {
          "internalType": "uint256",
          "name": "createdAt",
          "type": "uint256"
        },
        {
          "internalType": "uint256",
          "name": "expiresAt",
          "type": "uint256"
        },
        {
          "internalType": "enum ApprovalRegistry.Status",
          "name": "status",
          "type": "uint8"
        }
      ],
      "stateMutability": "view",
      "type": "function"
    },
    {
      "inputs": [
        {
          "internalType": "uint256",
          "name": "id",
          "type": "uint256"
        }
      ],
      "name": "rejectRequest",
      "outputs": [],
      "stateMutability": "nonpayable",
      "type": "function"
    },
    {
      "inputs": [],
      "name": "requestCount",
      "outputs": [
        {
          "internalType": "uint256",
          "name": "",
          "type": "uint256"
        }
      ],
      "stateMutability": "view",
      "type": "function"
    },
    {
      "inputs": [
        {
          "internalType": "uint256",
          "name": "",
          "type": "uint256"
        }
      ],
      "name": "requests",
      "outputs": [
        {
          "internalType": "uint256",
          "name": "id",
          "type": "uint256"
        },
        {
          "internalType": "string",
          "name": "approvalHash",
          "type": "string"
        },
        {
          "internalType": "string",
          "name": "requestedAmount",
          "type": "string"
        },
        {
          "internalType": "uint256",
          "name": "createdAt",
          "type": "uint256"
        },
        {
          "internalType": "uint256",
          "name": "expiresAt",
          "type": "uint256"
        },
        {
          "internalType": "enum ApprovalRegistry.Status",
          "name": "status",
          "type": "uint8"
        }
      ],
      "stateMutability": "view",
      "type": "function"
    }
  ],
  "bytecode": "0x608060405234801561000f575f80fd5b506111ac8061001d5f395ff3fe608060405234801561000f575f80fd5b506004361061007b575f3560e01c806381d12c581161005957806381d12c58146100d5578063c58343ef1461010a578063d7d1bbdb1461013f578063df89f8191461015b5761007b565b80632d7788db1461007f5780635badbe4c1461009b5780637e67ef12146100b9575b5f80fd5b6100996004803603810190610094919061093a565b610177565b005b6100a3610269565b6040516100b09190610974565b60405180910390f35b6100d360048036038101906100ce919061093a565b61026e565b005b6100ef60048036038101906100ea919061093a565b6103b6565b60405161010196959493929190610a8a565b60405180910390f35b610124600480360381019061011f919061093a565b610506565b60405161013696959493929190610a8a565b60405180910390f35b6101596004803603810190610154919061093a565b6106d6565b005b61017560048036038101906101709190610c23565b6107c7565b005b5f600381111561018a57610189610a17565b5b60015f8381526020019081526020015f206005015f9054906101000a900460ff1660038111156101bd576101bc610a17565b5b146101fd576040517f08c379a00000000000000000000000000000000000000000000000000000000081526004016101f490610ce3565b60405180910390fd5b600260015f8381526020019081526020015f206005015f6101000a81548160ff0219169083600381111561023457610233610a17565b5b0217905550807f1fdac08e93f72ff55b24ebdf4152b7f56b98982fe9249639c1010cc52aebccd660405160405180910390a250565b5f5481565b60015f8281526020019081526020015f206004015442116102c4576040517f08c379a00000000000000000000000000000000000000000000000000000000081526004016102bb90610d4b565b60405180910390fd5b5f60038111156102d7576102d6610a17565b5b60015f8381526020019081526020015f206005015f9054906101000a900460ff16600381111561030a57610309610a17565b5b1461034a576040517f08c379a000000000000000000000000000000000000000000000000000000000815260040161034190610db3565b60405180910390fd5b600360015f8381526020019081526020015f206005015f6101000a81548160ff0219169083600381111561038157610380610a17565b5b0217905550807f156422928a222d0605f7c85c73de1c726451b2032677324e1d205c5c26937c5760405160405180910390a250565b6001602052805f5260405f205f91509050805f0154908060010180546103db90610dfe565b80601f016020809104026020016040519081016040528092919081815260200182805461040790610dfe565b80156104525780601f1061042957610100808354040283529160200191610452565b820191905f5260205f20905b81548152906001019060200180831161043557829003601f168201915b50505050509080600201805461046790610dfe565b80601f016020809104026020016040519081016040528092919081815260200182805461049390610dfe565b80156104de5780601f106104b5576101008083540402835291602001916104de565b820191905f5260205f20905b8154815290600101906020018083116104c157829003601f168201915b505050505090806003015490806004015490806005015f9054906101000a900460ff16905086565b5f6060805f805f8060015f8981526020019081526020015f206040518060c00160405290815f820154815260200160018201805461054390610dfe565b80601f016020809104026020016040519081016040528092919081815260200182805461056f90610dfe565b80156105ba5780601f10610591576101008083540402835291602001916105ba565b820191905f5260205f20905b81548152906001019060200180831161059d57829003601f168201915b505050505081526020016002820180546105d390610dfe565b80601f01602080910402602001604051908101604052809291908181526020018280546105ff90610dfe565b801561064a5780601f106106215761010080835404028352916020019161064a565b820191905f5260205f20905b81548152906001019060200180831161062d57829003601f168201915b505050505081526020016003820154815260200160048201548152602001600582015f9054906101000a900460ff16600381111561068b5761068a610a17565b5b600381111561069d5761069c610a17565b5b815250509050805f015181602001518260400151836060015184608001518560a001519650965096509650965096505091939550919395565b5f60038111156106e9576106e8610a17565b5b60015f8381526020019081526020015f206005015f9054906101000a900460ff16600381111561071c5761071b610a17565b5b1461075c576040517f08c379a000000000000000000000000000000000000000000000000000000000815260040161075390610ce3565b60405180910390fd5b6001805f8381526020019081526020015f206005015f6101000a81548160ff0219169083600381111561079257610791610a17565b5b0217905550807fbecbbd7543b68baaaf7e9c3fd12e4719f1f506f4253abef4a6573d0adf3a73ed60405160405180910390a250565b5f808154809291906107d890610e5b565b91905055506040518060c001604052805f5481526020018381526020018281526020014281526020016203f480426108109190610ea2565b81526020015f600381111561082857610827610a17565b5b81525060015f805481526020019081526020015f205f820151815f0155602082015181600101908161085a9190611072565b5060408201518160020190816108709190611072565b50606082015181600301556080820151816004015560a0820151816005015f6101000a81548160ff021916908360038111156108af576108ae610a17565b5b02179055509050505f547f2f218e1b6533efe437f7a6dafaf76a0a09f1f245838d66142e6cbd7af541ecf483836040516108ea929190611141565b60405180910390a25050565b5f604051905090565b5f80fd5b5f80fd5b5f819050919050565b61091981610907565b8114610923575f80fd5b50565b5f8135905061093481610910565b92915050565b5f6020828403121561094f5761094e6108ff565b5b5f61095c84828501610926565b91505092915050565b61096e81610907565b82525050565b5f6020820190506109875f830184610965565b92915050565b5f81519050919050565b5f82825260208201905092915050565b5f5b838110156109c45780820151818401526020810190506109a9565b5f8484015250505050565b5f601f19601f8301169050919050565b5f6109e98261098d565b6109f38185610997565b9350610a038185602086016109a7565b610a0c816109cf565b840191505092915050565b7f4e487b71000000000000000000000000000000000000000000000000000000005f52602160045260245ffd5b60048110610a5557610a54610a17565b5b50565b5f819050610a6582610a44565b919050565b5f610a7482610a58565b9050919050565b610a8481610a6a565b82525050565b5f60c082019050610a9d5f830189610965565b8181036020830152610aaf81886109df565b90508181036040830152610ac381876109df565b9050610ad26060830186610965565b610adf6080830185610965565b610aec60a0830184610a7b565b979650505050505050565b5f80fd5b5f80fd5b7f4e487b71000000000000000000000000000000000000000000000000000000005f52604160045260245ffd5b610b35826109cf565b810181811067ffffffffffffffff82111715610b5457610b53610aff565b5b80604052505050565b5f610b666108f6565b9050610b728282610b2c565b919050565b5f67ffffffffffffffff821115610b9157610b90610aff565b5b610b9a826109cf565b9050602081019050919050565b828183375f83830152505050565b5f610bc7610bc284610b77565b610b5d565b905082815260208101848484011115610be357610be2610afb565b5b610bee848285610ba7565b509392505050565b5f82601f830112610c0a57610c09610af7565b5b8135610c1a848260208601610bb5565b91505092915050565b5f8060408385031215610c3957610c386108ff565b5b5f83013567ffffffffffffffff811115610c5657610c55610903565b5b610c6285828601610bf6565b925050602083013567ffffffffffffffff811115610c8357610c82610903565b5b610c8f85828601610bf6565b9150509250929050565b7f52657175657374206973206e6f742070656e64696e67000000000000000000005f82015250565b5f610ccd601683610997565b9150610cd882610c99565b602082019050919050565b5f6020820190508181035f830152610cfa81610cc1565b9050919050565b7f4e6f7420657870697265642079657400000000000000000000000000000000005f82015250565b5f610d35600f83610997565b9150610d4082610d01565b602082019050919050565b5f6020820190508181035f830152610d6281610d29565b9050919050565b7f416c72656164792070726f6365737365640000000000000000000000000000005f82015250565b5f610d9d601183610997565b9150610da882610d69565b602082019050919050565b5f6020820190508181035f830152610dca81610d91565b9050919050565b7f4e487b71000000000000000000000000000000000000000000000000000000005f52602260045260245ffd5b5f6002820490506001821680610e1557607f821691505b602082108103610e2857610e27610dd1565b5b50919050565b7f4e487b71000000000000000000000000000000000000000000000000000000005f52601160045260245ffd5b5f610e6582610907565b91507fffffffffffffffffffffffffffffffffffffffffffffffffffffffffffffffff8203610e9757610e96610e2e565b5b600182019050919050565b5f610eac82610907565b9150610eb783610907565b9250828201905080821115610ecf57610ece610e2e565b5b92915050565b5f819050815f5260205f209050919050565b5f6020601f8301049050919050565b5f82821b905092915050565b5f60088302610f317fffffffffffffffffffffffffffffffffffffffffffffffffffffffffffffffff82610ef6565b610f3b8683610ef6565b95508019841693508086168417925050509392505050565b5f819050919050565b5f610f76610f71610f6c84610907565b610f53565b610907565b9050919050565b5f819050919050565b610f8f83610f5c565b610fa3610f9b82610f7d565b848454610f02565b825550505050565b5f90565b610fb7610fab565b610fc2818484610f86565b505050565b5b81811015610fe557610fda5f82610faf565b600181019050610fc8565b5050565b601f82111561102a57610ffb81610ed5565b61100484610ee7565b81016020851015611013578190505b61102761101f85610ee7565b830182610fc7565b50505b505050565b5f82821c905092915050565b5f61104a5f198460080261102f565b1980831691505092915050565b5f611062838361103b565b9150826002028217905092915050565b61107b8261098d565b67ffffffffffffffff81111561109457611093610aff565b5b61109e8254610dfe565b6110a9828285610fe9565b5f60209050601f8311600181146110da575f84156110c8578287015190505b6110d28582611057565b865550611139565b601f1984166110e886610ed5565b5f5b8281101561110f578489015182556001820191506020850194506020810190506110ea565b8683101561112c5784890151611128601f89168261103b565b8355505b6001600288020188555050505b505050505050565b5f6040820190508181035f83015261115981856109df565b9050818103602083015261116d81846109df565b9050939250505056fea26469706673582212206e589a7968fb894915e833a293e1eee2cfaae8c2fc87d4c475d0a7ca443fe67e64736f6c63430008140033",
  "linkReferences": {},
  "deployedLinkReferences": {},
  "immutableReferences": {},
  "inputSourceName": "project/contracts/ApprovalRegistry.sol",
  "buildInfoId": "solc-0_8_20-ac2c1bcb644ab0c2aefdf051cb4858a0497a29e2"
}